:020000041000EA
:1000000000B5324B212058609868022188439860DF
:10001000D860186158612E4B002199600221596106
:100020000121F02299502B49196001219960352056
:1000300000F044F80222904214D00621196600F024
:1000400034F8196E01211966002018661A6600F04E
:100050002CF8196E196E196E052000F02FF8012189
:100060000842F9D1002199601B49196000215960AB
:100070001A491B48016001219960EB211966A021F2
:10008000196600F012F800219960164914480160C1
:100090000121996001BC002800D000471248134993
:1000A000086003C880F30888084703B5996A0420EC
:1000B0000142FBD001200142F8D103BD02B5186610
:1000C0001866FFF7F2FF186E186E02BD00000240BE
:1000D000000000180000070000035F00212200005C
:1000E000F4000018222000A00001001008ED00E03C
:1000F00000000000000000000000000074B24E7A12
:1001000000200420F7010010C3010010C5010010F9
:10011000C1010010C1010010C1010010C101001097
:10012000C1010010C1010010C1010010C701001081
:10013000C1010010C1010010C9010010CB01001065
:10014000CD010010CD010010CD010010CD01001037
:10015000CD010010CD010010CD010010CD01001027
:10016000CD010010CD010010CD010010CD01001017
:10017000CD010010CD010010CD010010CD01001007
:10018000CD010010CD010010CD010010CD010010F7
:10019000CD010010CD010010CD010010CD010010E7
:1001A000CD010010CD010010CD010010CD010010D7
:1001B000CD010010CD010010CD010010CD010010C7
:1001C00000BE00BE00BE00BE00BE00BEEFF3058054
:1001D000103800BEF2EB88711474001044740010E3
:1001E0003802001090A31AE71E481F49086006C88D
:1001F00081F3088810471D480068002801D019487D
:10020000F3E70DA40ECC002902D000F012F8F9E7B4
:100210001749184A002000E001C19142FCD116495B
:100220008847164988471649884700BEFDE701C937
:1002300001C29A42FBD3704744740010C0000020F2
:10024000801A0020048E001000000420000004200A
:10025000048E001000100420001004200000000094
:10026000704700000000000008ED00E0000000D032
:10027000801A0020483B00206531001085080010DE
:100280005D310010F8B5C04606480749091A8B10C1
:10029000C90FC91810B5491003D0044B002B00D06A
:1002A000984710BD801A0020801A0020000000002E
:1002B000054B10B5002B03D00449054800E000BFF2
:1002C000FFF7E2FF10BDC04600000000B439002077
:1002D000F46E001070B5144C144D236828681B018F
:1002E0001A58134B1A6023681B01C3185A68114B24
:1002F0001A6023681B01C3189A680F4B1A602368A1
:100300001B01C318DA680D4B1A602168090102F05D
:10031000BFFE2860002803D02368013B236070BD26
:10032000074803F07DF8FAE720140020EC3900209C
:1003300034140020301400202C1400202814002035
:10034000F46E0010F0B54546DE4657464E46E0B521
:10035000594D5A4A2B788DB0DBB213702B78099225
:10036000574ADBB21370574B059218700293564BE5
:1003700019700393554B06931B78C01A544B07937F
:100380001B78C91A084300D084E0524B2A7808939E
:100390001B78514E9A425DD0504B514F9A46514B6B
:1003A0009B46514B9846514B0A93514B9946514BA2
:1003B0000B938022504C12010021200002F086FE97
:1003C0004E4B20001900049300F0EEFA40463168CD
:1003D0003A680368484600680090200000F0E8FB97
:1003E0000598039B029A1978127803780998D2B27B
:1003F0000078DBB20590012001900598C9B2009009
:10040000200000F01DFB2000049900F0CDFA029AB4
:100410001378069ADBB21370039B079A1B78DBB242
:1004200013702B78089ADBB213705246336813604E
:100430005A463B68136043460A9A1B6813604B4652
:100440000B9A1B6813600DB0F0BCBB46B246A946C0
:10045000A046F0BD214B306819689A4602F0FAFCBC
:100460001F4F00281AD01F4B386819689B4602F0AE
:10047000F1FC1D4B9846002895D018681B4B196855
:100480000A9302F0E7FC1A4B994600280BD1194B4E
:100490000B938EE70F4B104E08937DE7114B9B4655
:1004A000114B98467FE71868124B19680B9302F0BE
:1004B000D1FC0028C7D17CE73D3B00203E3B00201B
:1004C0003F3B0020403B0020413B0020443B0020BC
:1004D000453B0020433B002034140020143B002007
:1004E00030140020103B00202C1400200C3B002076
:1004F00028140020083B002010250020181400209C
:10050000E022F0B5D6464F464646434CD20123681A
:10051000C0B51340414A02201360002101F0E0FD04
:1005200004223F4B1A60FC3223681342FCD06368FC
:100530003C4D22682B8080235B015340E022D20196
:100540001340364A00211360022001F0C9FD042245
:100550008021334B49001A602F4A13680B42FCD0AC
:1005600053683F209BB2984642462F4B1A802F4B30
:100570001A78D2B291461A781B78801ADBB29A4662
:1005800002F05AFB060028880F0002F07FFC02F000
:10059000A5FC0022264B02F028FB040050460D006B
:1005A00002F04AFB02000B000020224902F013FB7C
:1005B00002000B002000290002F031FB02000B00BA
:1005C0003000390002F007FB02F04EFBC4B2404697
:1005D00002F05CFC02F082FC0022174B02F005FBEB
:1005E000060048460F0002F027FB02000B00002027
:1005F000124902F0F0FA02000B003000390002F05C
:100600000EFB02F031FB2100C0B2FFF79BFEE0BC05
:10061000BA46B146A846F0BD00C0044000D0044030
:1006200000E00440323B0020343B00203D3B0020F2
:1006300000E4AF4000804F4000E8AF4000C05F40A2
:10064000F0B5DE4657464E464546E0B55C08394BA8
:1006500007009B461868384B87B00E00196855088C
:10066000994602F0AEFB354B01909A461868344B20
:10067000EF191968984602F0A4FBFFB20490781BAA
:1006800002F00AFCA619F6B20290301B02F004FC3C
:100690004B461B68029905900198039302F0ABFB4F
:1006A000F021890502F0A7FB039902F08DFB4B4670
:1006B00018601B687819994602F0EEFB029902F067
:1006C00080FB019902F097FBF021890502F093FB72
:1006D000494602F079FB5B46186043461D68059B5E
:1006E000049F191C381C994602F085FBF2218905EC
:1006F00002F081FB291C02F067FB434618603019A9
:100700001D6802F0C9FB494602F05BFB391C02F090
:1007100072FBF221890502F06EFB291C02F054FBEA
:100720005346186007B0F0BCBB46B246A946A04687
:10073000F0BDC046301400203414002028140020DE
:100740002C14002070B504000D0001F069FE3F4A32
:100750003F491368C31A8B4236D9D02310601B0659
:100760005B689B0608D43B4B1B78002B3ED03A4A73
:1007700013780133DBB21370D0231B065B685B0672
:1007800012D4344B1B78002B23D1344B1B78344BC1
:100790001B78344B1B78344B1B78344B1A68002A77
:1007A00002DB1B680A2B4DDDD0231B065A68520260
:1007B0000AD4012027490A7842400A7080225968E9
:1007C0001201114210D15A612900200000F072FD7F
:1007D00070BD214A1378013BDBB21370D0231B0696
:1007E0005A685202F0D4E4E79A61EDE71F4A2048C4
:1007F0001368013313601F4B11681B6800680901FF
:10080000C85011681C4809010068591848601168EF
:100810001A480901006859181268886018491201BD
:1008200009689B18D9600D4B18780D4BC0B2197828
:100830000C4BC9B21A780C4BD2B21B78DBB2FFF763
:10084000FFFE99E7FFF746FDAEE7C046A431002062
:10085000400D0300241400203D3B0020403B0020BD
:10086000413B00203F3B00203E3B00202014002065
:1008700034140020EC390020301400202C14002007
:100880002814002030B58BB002F078FD00F0AEFAED
:1008900000F0EAFA00F0CAFAA02002F0E7FB1E4BD3
:1008A0001860002831D01D4C0122230004210520AE
:1008B00000F098FC230001220421062000F092FCA5
:1008C000230001220421162000F08CFC144D280086
:1008D00000F032F88022134C12010021200002F0B7
:1008E000F5FB2900200000F05FF801F0F9FA04ABF5
:1008F0000293002301930C4B0C4A0093002301F058
:10090000EBFC0B4802F08CFDFEE70A4802F088FD84
:1009100001200BB030BDC046EC3900204507001067
:1009200018140020102500200105001080BB0000D5
:100930005C6F0010206F0010037842788178D21A23
:10094000C37801325B1A0133534343607047C0469A
:10095000F0B54746CE4680B58BB003AC2200104BB5
:10096000802723CB23C223CB23C21B8800261380DE
:1009700026236B4499460B4B02AD984623782F7083
:100980006B702A0002233C2140460096013405F09A
:1009900033FB4C45F2D10BB0C0BCB946B046F0BDFC
:1009A0001871001010150020F0B557464E46454608
:1009B000DE462123E0B587B004AC23700B78834674
:1009C00063704B788A46A3702223E3704B8800271C
:1009D000A38016236B44994680239846174E03AD97
:1009E000424623782A706B702A0002233C21300093
:1009F0000097013405F000FB4C45F1D153465B688C
:100A00005D1C2800984602F031FB4023040042465A
:100A100059460370013002F05FFB2B0022003C219D
:100A20003000009705F0E8FA200002F043FB07B021
:100A3000F0BCBB46B246A946A046F0BD101500204A
:100A4000F0B557464E464546DE46E0B5150083B044
:100A50000CAC009222780DAC924622785C1991463B
:100A6000A54200DB98E0CB10DA0190465246571EB3
:100A700007227F18FE17934616403A409446F6190F
:100A800001226746BA4094465A4601270A409740D9
:100A90004A46F610F601002A43D1FA4391466246CF
:100AA0009B46D24343468846310094460195009ABE
:100AB0000093009B57189E184B46855D01321D40E0
:100AC00063468555C55DD2B21D40C555A242F0DBD7
:100AD000414652468F185B46019D47451ADD013C51
:100AE00007229446063A9046AA46A14600E0CB105B
:100AF0006646454652460E40B540DB019C18025DF5
:100B00004B44AA430255C25C0131AA43C9B2C25444
:100B10008F42ECDC03B0F0BCBB46B246A946A0460F
:100B2000F0BD9B46434689462A003100B8460195F0
:100B30000093009B56189F184346C55D01321D4324
:100B40006346C555855DD2B21D438555A242F0DB93
:100B5000494652468F185B46019D4F45DADD013C00
:100B600007229046063A9446AA46A14600E0CB10DA
:100B70005246DB01D418424665460A409540065D60
:100B8000EAB216434B440655C65C01313243C9B242
:100B9000C254B942EBDBBDE75346CF188F42B9DDF3
:100BA000013C002A01D1CB109AE7CB10D8E7C04610
:100BB000F0B54546DE4657464E46E0B5864F91B005
:100BC0000590386804930E1C151C02F043F9834B02
:100BD0001A9C9846002800D0DBE0814B9946814B57
:100BE0009A46311C281C02F0ECF8F021890502F02D
:100BF00002F904990890201C02F0E3F8F22189051B
:100C000002F0F9F80023039343460B934B460C93F1
:100C10005346069009951A940A970D93039802F08B
:100C20003BF9089902F0E7F8311C02F0CDF80023F7
:100C3000B14607900293029802F02EF9069902F04D
:100C4000DAF8049902F0C0F80021824602F0D3F8E5
:100C5000079902F0B9F8002400268346B046251C07
:100C600002E04346502B6DD0211C201C02F0C3F83B
:100C7000291C061C281C02F0BEF8011C301C02F0C6
:100C8000A0F8291C061C201C02F0B5F8011C02F07B
:100C90009BF8071C011C301C02F0ECF800286ED1F8
:100CA000311C584602F090F8391C041C504602F0E2
:100CB0008BF801239C46051C291C201CE04406F0EF
:100CC000B7F88021C90502F0CDF80028C9D1039AF0
:100CD000029C9446E3100599DB0163440720CA187F
:100CE0004646C95C012320408340502E37D09943AB
:100CF000029B117001330293402B9CD1039B4E4603
:100D000001330393802B89D10B9B099D98460C9B43
:100D1000049A99460D9B1A9C9A4643461D604B4681
:100D20001A60802253460A9F2F48059912013E609F
:100D30001C6002F0D1F911B0F0BCBB46B246A94626
:100D4000A046F0BD039A029C9446E3100599DB018E
:100D500063440720CA18C95C0123204083400B4329
:100D60001370029B01330293402B00D063E7039B77
:100D70004E4601330393802B00D04FE7C4E7009524
:100D8000231C2A1C211C0EA806F042F80E9E0F9F61
:100D900086E71868291C02F05DF8114B9946002877
:100DA00016D01868049902F055F80E4B9A460028A0
:100DB00000D116E71868211C02F04CF8002800D179
:100DC0000FE7802208490598120102F085F9B2E781
:100DD000044B9A4605E7C0461C2D0020182D002024
:100DE000142D0020102D0020B031002010B505205A
:100DF000D02400F081FA20232406A36200220121DE
:100E0000052000F0DBF9062000F076FA40230022EE
:100E1000A3620121062000F0D1F90B2000F06CFA4A
:100E200080231B016362A36110BDC04610B50C494D
:100E30000C4805F0B9F803210E2000F0A5F90321B4
:100E40000F2000F0A1F9002201210E2000F0B6F9D8
:100E5000002201210F2000F0B1F9FFF779FD10BD4C
:100E6000801A06001015002010B505F0CFF81F21DC
:100E70001A2000F089F9002200211A2000F09EF9C2
:100E800000211A2000F024FA1F211B2000F07CF919
:100E9000002200211B2000F091F900211B2000F00E
:100EA00017FA162000F028FAD02380221B06D2035E
:100EB0009A6201210022162000F080F910BDC04680
:100EC000D0231B061B68AC4A9900F0B5DE468B4662
:100ED00051585A4253412F2257464E4645465B428F
:100EE00093439A46A54BE0B59C4683B000260191FA
:100EF000E244002938D0A24B99465246F308083301
:100F00009B009D580123340098460836002D22D0BE
:100F10000F212000294001342D09002919D04B460A
:100F20005A469A580300C240203BDB171340424602
:100F300013420CD107220F000240920097403A0062
:100F4000C308904F3C339B00DA51019B9847002D1A
:100F500001D0B442DCD3202ECFD103B0F0BCBB46CD
:100F6000B246A946A046F0BD854E5F4600210F233C
:100F7000B346CC0822005046083292001258002A8C
:100F800000D1D0E0180010408046100913421AD05A
:100F90005D46ED59A94620256D42AC468C44654618
:100FA000ED17AC464D46CD40A94665464E46354008
:100FB0000126354204D14646724D3C34A4006651A8
:100FC000002800D1AFE01C000440A446140A0342EC
:100FD0001AD0481C80465846C059464681464D4660
:100FE0000800F5401F38C01728400125284208D1C5
:100FF00065462D01AC46F0086646624D3C308000E7
:101000004651002C00D18EE0180020408446100B81
:10101000234211D08C1CA0465C46E4594646A146AA
:101020004D460C00F5401E3CE4172C4001252C4297
:1010300000D182E0002876D01C000440A446140CA5
:10104000034210D0C81C80465846C05946468146C7
:101050004D460800F5401D38C0172840012528429C
:1010600075D0002C5FD0180020408046100D234220
:101070000ED00C1DA4466546414CE459EC40A146F7
:101080000C004D461C3CE40F2C426AD000284AD08C
:101090001C000440A446140E034218D0481D80468C
:1010A00045463748C059E840814608004D461B3840
:1010B000C00F284209D165462D05AC46404666461C
:1010C000C008304D3C3080004651002C2BD0180019
:1010D00020408446120F23422AD029488C1D814685
:1010E000C059E0408046080045461A38C00F2842E3
:1010F00006D1E0086446234D3C302406800044516C
:10110000002A10D04846C059CC1DE0408446080053
:1011100065461938C00F284205D1E0083C30194C0B
:101120001207800002510831202900D021E714E77E
:10113000002AF8D012488146E4E765462D02AC4605
:10114000F40866460F4D3C34A400665172E76546CC
:101150002D03AC46F00866460A4D3C3080004651EF
:101160007FE745462D04A84664464646E408054DFB
:101170003C34A400665189E7202D00203041014015
:10118000E439002000400140094A83009A1810B554
:1011900014684022544080322240064CC000A446CD
:1011A00063441A60044B9C466044416010BDC046D5
:1011B00004C0014004D0014000400140074B8000C2
:1011C000C3181B68C90092000A435A400C231340FD
:1011D000034A9446604403607047C04604C001401F
:1011E00004D00140F8B545469846D0231B06DE469C
:1011F0001C689B462B4B57469A46A3004E46994681
:10120000E0B5534616004A469B5807000D00002BD8
:1012100034D04346002B3FD053464A46414699506E
:10122000D0231B061C6863425C412F2207206342C7
:1012300093431D4A38409446FA08110080008540C7
:101240003C311A486344890092000D509B18002ECF
:101250000ED0802292019446634401210D201D602E
:1012600000F02CF9F0BCBB46B246A946A046F8BD3A
:10127000C0229201944663441D60F3E74346002B6D
:10128000D1D0534641460D2099500022084900F024
:1012900077F95B461C68C6E70D20054900F06AFA3D
:1012A000BAE7C046202D00203041014000400140F7
:1012B000C10E00100200C3080720104080008140CA
:1012C000024A3C339B0099507047C04600400140A1
:1012D0008000002905D0064B9C46402360440360F3
:1012E0007047044B9C46402360440360F8E7C046C7
:1012F00004E0014004F001400123D02283401206A3
:1013000093629361094A83009A1811684022514000
:1013100080320A400649C0008C4663441A60054B7F
:101320009C460523604443607047C04604C00140AA
:1013300004D00140004001408023DB051868000F05
:101340007047C0460FB400B5084883B002F068F893
:10135000049B002B07D005A91800019101F0CAFEDB
:10136000034802F05DF8012001F0DCFE646F00101C
:10137000746F001070B5EFF3108C72B60D4D2B68C2
:10138000002BFCD0BFF35F8F0724CB08C618C05CCE
:1013900001230C40A3401C000440034207D1184322
:1013A0003070BFF35F8F2C608CF3108870BD10001D
:1013B000FFF7C8FF2C0100D0F8B54746CE46884657
:1013C00080B5EFF3108C72B61C4D2C68002CFCD04D
:1013D000BFF35F8F9A4222D807210126894602E097
:1013E0000132934218D34D4637001540AF40D40820
:1013F0000119045D2742F3D110003C430C70BFF388
:101400005F8F00220D4B1A608CF3108800280EDBD2
:10141000C0BCB946B046F8BD01204042EFE7BFF37B
:101420005F8F00232B608CF31088012040424346DD
:10143000002BEDD00898FFF785FFC0462C0100D0A7
:10144000044A1078431CDBB2172B00D91023137009
:101450007047C0463814002010B5064B064C82B0C9
:101460000100009318221F232000FFF7A5FF02B000
:1014700010BDC046786F0010382D00200021044BAD
:10148000044ABFF35F8F02C39342FAD17047C0464C
:10149000000100D0800100D0054B064A1360064AC7
:1014A000136053609360D36013615361936170471D
:1014B0008080808000E400E004E400E01F23184006
:1014C0001E3B8340002905D0C021044A49005350E7
:1014D00013607047802201498B50FAE700E100E079
:1014E00001228240034B1B6813405A1E9341D8B21D
:1014F0007047C04600E100E001238340014A1360C9
:101500007047C04600E200E0064B10309B68800048
:10151000C358054A00209B1A2F229A424041C0B26C
:101520007047C04600ED00E03C14002070B50D008F
:10153000EFF3108672B60F4A1368002BFCD0BFF38E
:101540005F8F0D4B10309B6884001B590B4A9342F0
:1015500003D09D4201D001F037FA074B9B681D5123
:10156000BFF35F8FBFF35F8F0022024B1A6086F3D9
:10157000108870BD240100D000ED00E0CD01001006
:10158000F0B557464E46DE464546E0B585B0060006
:1015900000911700EFF3108B72B66A4A1368002BA4
:1015A000FCD0BFF35F8F0025674B5D579A46002D37
:1015B00000DAA9E06B00654C01935B199B0098462B
:1015C000A146C1444B4652469B7910361370604B7E
:1015D000B6009B6899590B1B2F2B33D95D4B994251
:1015E00000D0ACE0019B42469C465B4B6544AD009D
:1015F00063535A4B0232A218043B9B1A1B05584AEC
:101600005B0D651913436B80564B0121AB80FF23A3
:10161000AB71009BEF71AB604B460B4319004C4B19
:101620009B689951BFF35F8FBFF35F8F0022454BDB
:101630001A608BF3108805B0F0BCBB46B246A946D1
:10164000A046F0BD01200A008243D3798C46BB42FC
:1016500031D84546130044491B1B5B415943090DD2
:101660003D4B63533D4B02356519043B5B1B1B052A
:101670003B4D5B0D2B43AA464D466B800425AC4683
:101680005546E044131F44441B1B1B055B0D1D43C3
:101690004B46997100999D8099604946DF71334BA3
:1016A00001431360BBE75800C01880002018C179BF
:1016B000B9422FD902000623D356002BF3DA029346
:1016C0002B4B61460393131D9A4604235B429C46B1
:1016D000E14450464B461B1A1B055B0D9C46204BB4
:1016E000957198466346404603439380019B5A197F
:1016F0009200039BA418A380029B1C4AA371009B29
:101700002260E771A3608AE701F05EF90025534685
:101710005D574FE7908802934005131D9A460315C5
:1017200061469C464046D444634604302018181A4B
:10173000E0230005400D1B0218430390C5E701F0AC
:1017400043F94FE7240100D03A3B00203C1400202D
:1017500000ED00E0CD01001000A1FFFF6C1400209F
:1017600000E0FFFF01BDFFFFAAAA0000014880477B
:1017700001BD0000F0B5DE4657464E464546E0B591
:101780000C0083B0EFF3108872B6634A1368002B25
:10179000FCD0BFF35F8F614B61499A68030010333F
:1017A0009F00D55901938D4243D0A54254D05D4E40
:1017B000AA1B2F2A3DD85C4B9B461B6899460123E8
:1017C0001A009C4682404B4613401F2299466346AE
:1017D000024093409A4680225B4650469850BFF3A1
:1017E0005F8FEFF305839B46002B37D0019B5B4552
:1017F00001D001F0E9F801232A009A43906884425D
:1018000008D176E04B005B189B00F318986884427F
:1018100036D01A00062151560029F3DA844254D0FA
:101820004B46002B27D0C02251463F4B52009950C7
:1018300019603A4B9B68DD51BFF35F8FBFF35F8F39
:101840000022354B1A6088F3108803B0F0BCBB4609
:10185000B246A946A046F0BD0D00EAE72A0063465D
:101860009A4390688442D5D1062010561300002870
:101870000ADA0D0031E0802351462B4AD150D8E7D7
:1018800006201856002821DB420011188900741820
:101890008B46A1689960E179D971062161569971E9
:1018A000002924DBA488F11A640524155C44091975
:1018B00009051E4C490D2143998013181C4A9B00B1
:1018C0001178F31899711070AAE71300594600298E
:1018D00014D1FF3191711749918015490A789A7195
:1018E000154A9B1B5B415A43120D0A7098E7114938
:1018F000E2E70620105613000028C5DA0F4A104907
:10190000D21A083A5002400D014399800D495208FD
:101910000A43DA8084E7C046240100D000ED00E0ED
:10192000CD0100103C14002000E100E000E0FFFFCA
:101930003A3B002001BDFFFFAAAA00007614002058
:1019400000F0FFFF00F8FFFF70B501240443EFF340
:101950000581EFF3108C72B6214A1368002BFCD07E
:10196000BFF35F8F1F4B05001F4AED1A6D416A439D
:10197000120D1E4D8900AE6852B27658A6421CD098
:101980000621595691421CD012215956914222D01B
:101990001E215956914220D02A21595603249142A2
:1019A00010D0134B19781A708171BFF35F8F00222A
:1019B0000B4B1A608CF3108870BDAB680D4C5C50FB
:1019C000EFE700246100091989005B18FF21997174
:1019D00009499980E5E70124F4E70224F2E7C046CB
:1019E000240100D03C140020AAAA000000ED00E071
:1019F0003A3B0020CD01001001BDFFFF10B5084BA0
:101A0000084C82B001000093002205232000FFF75C
:101A1000D3FC002801DB1F23181A02B010BDC046FA
:101A2000946F0010463B0020024B9C4661448900A5
:101A3000016070474000003470B5114C114DAC424C
:101A40000FD2FF262368002B0CD0FFF7F9FC010012
:101A50002000FFF7E9FFA680BFF35F8F0834AC4298
:101A6000F0D370BDFFF7ECFC01002000FFF7DCFFB6
:101A70002671BFF35F8F0834AC42E3D3F1E7C04671
:101A8000781A0020801A002010B50400FFF7D8FC57
:101A900001002000FFF7C8FFFF232371BFF35F8F12
:101AA00010BDC04610B504000120FFF7D5FC034B64
:101AB000C3189B002360BFF35F8F10BD400000344C
:101AC000034B9C46614489000160BFF35F8F704700
:101AD000400000340A4B1968EFF3108072B60A68B0
:101AE000002AFCD0BFF35F8F1B68BFF35F8F00221B
:101AF0001A6080F3108840BF002000217047C04664
:101B0000FC3A0020F0B5DE4657464E464546E0B565
:101B100087B0EFF30583032201251A409540910019
:101B20008846A946B34B03925C58B34B1D60B34B38
:101B300004934B46B24843630823E55E002D37DA31
:101B4000A3881BB2002B00DBADE0A379002B00D0F3
:101B5000EEE00823E05E002820DB430062691B18EA
:101B6000DB00D3189E68DD68731C00D111E1A44826
:101B700001004144826A0B69B71A9B1A9F4215D330
:101B80000123026A039883401A420FD09C4800F058
:101B90003FFC8D4202DCCCD18642CAD940BF07B09F
:101BA000F0BCBB46B246A946A046F0BD0E61EDE7CB
:101BB00062696B0092465B19DB009A4453469E684B
:101BC000DF6800F025FC8F42BADC00D103E1002F72
:101BD00000DAE8E05246534652691B699346049A7C
:101BE000934200D1D9E052460821605E5288000439
:101BF000594610439847009001910099019A0B00B3
:101C00001000134300D1CEE013000A00B61A9F4122
:101C1000002806DB7A4800F0FBFB009E019F361887
:101C20004F4153469E60DF6000229A5E002A00DA30
:101C300086E7530099186069C900411802938B68C0
:101C4000C9689B46B94200DD7AE702D1B34200D9A8
:101C500076E708239C46A444059565462281A44660
:101C6000029B2C0006E053009918C90041188D68AA
:101C7000C968AB469B18DB00C318B94206DC00D12B
:101C8000B3E01C000023E25E002AECDA2300644685
:101C90009C4653461A806346059D1D80A3881BB24F
:101CA000002B00DA51E72269EFF3108172B6136856
:101CB000002BFCD0BFF35F8F0123A7885B42A3807A
:101CC0003FB22369BFF35F8F00221A6081F310884F
:101CD000002F00DA39E72300083322009A466669AC
:101CE0007B00DB19DB00F318996850468C4608240A
:101CF000115FDD68002910DB029306E0AB4244D09F
:101D00000023E15E2000002906DB4C006418E4009B
:101D10003419E368AB42F1DD029B078000201F5EAF
:101D20001980002FDCDA1400A379002B00D110E712
:101D30000023A37126000823E15E08364B1C00D166
:101D40002CE70800A246656902E03E004B1C1AD051
:101D50004B005B18DB00EF180A008C46E95E7B88BD
:101D60001BB2002BF1DA01235B42DC17BB60FC6085
:101D7000824205D0534631801B893B8053461A81ED
:101D800060464B1CE4D15446E5E6A3686345B7D9E9
:101D9000C2E76B1C00D0EAE6F8E65B4658461B69D2
:101DA000984700281BD153461B8822692381EFF3F3
:101DB000108372B611680029FCD0BFF35F8F5146C3
:101DC00062880A8022696580BFF35F8F00211160FD
:101DD00083F31088B4E6864200D8F8E6B0E65B46A6
:101DE0001A685B680092019307E7B34500D848E79B
:101DF0004CE7C046D43900203C700540051B00105C
:101E00000040054070B52E4C2569002D04D00A21F4
:101E10002C48FFF709FE70BD2B4E0321300000F067
:101E2000EDFAE660FFF70CFB284B03229C46D0231B
:101E300022701B061B6801216370254B6044A36060
:101E40000F23800020610220638063694942A180E2
:101E500019800231198647311D83585218315A5260
:101E600075325C3999521832013199521832013168
:101E70009952183201319952083518329D52023167
:101E8000183299521832013199521832013199524F
:101E900018320131995218320131995218320131F8
:101EA00099520C4B0C49DC6001303562FFF73EFB68
:101EB00001210320FFF702FB084B1D60A7E7C04686
:101EC00084140020FC3A002000400540400000340B
:101ED000FFFF1000D4390020051B001038600540BA
:101EE0000048704784140020F8B51F0008AB1B7829
:101EF00004001600002B08D100F092FA32003B00DB
:101F0000121A8B41002B00DA52E02269EFF31080A5
:101F100072B61368002BFCD0BFF35F8F0223E15E23
:101F200063694A005218D2009B182269002936DBE7
:101F30001D886580BFF35F8F0025156080F31088D2
:101F4000069A9E60DF601A61079A5A615A880132C8
:101F50005204520C101C002A1FD082B25880080470
:101F600010432669EFF3108772B63268002AFCD05E
:101F7000BFF35F8FA2881A80A1802369BFF35F8FB0
:101F800000221A6087F310880A4923788C460132B0
:101F90009A40E36863441A60F8BD0120DDE7BFF3AF
:101FA0005F8F0023136080F3108801204042F3E725
:101FB0000020F1E73C20000070B501000469EFF358
:101FC000108C72B620680028FCD0BFF35F8F02200F
:101FD0000D5E4C6968004019C00024180869002D86
:101FE00036DB26884E80BFF35F8F002606608CF3B9
:101FF0001088E36063880498013320615B040598CE
:102000005B0CA26060611A1C002B1FD093B22804E5
:10201000628018430A69EFF3108C72B61368002BC4
:10202000FCD0BFF35F8F8B8823808D800B69BFF35B
:102030005F8F00221A608CF310880B7801329A406F
:10204000CB6808498C4663441A6070BD0122DDE705
:10205000BFF35F8F002303608CF3108801204042A0
:10206000F3E7C0463C20000010B543890A149342B0
:102070001ADD53009B184269DB00D3180469EFF3A3
:10208000108C72B62268002AFCD0BFF35F8F5A888A
:10209000090494B2090C8A4208D00369BFF35F8F28
:1020A00000221A608CF31088002010BD80221202DA
:1020B00014435C80012302698371BFF35F8F0021A9
:1020C00011608CF31088044902788C469340C268F2
:1020D000012062441360E8E73C200000407870472C
:1020E000F0B5C64600B582B004000D0000F098F9C6
:1020F00024184D41002D02DA01242F4D644206269A
:102100007642F71736196F41AF4214D811D000F05C
:1021100087F932003B00121A8B41002B15DC002B93
:1021200046D02000290000F0B9F902B080BCB846C2
:10213000F0BDA642EBD90026002700F071F932006D
:102140003B00121A8B41002BE9DD00F069F93200E7
:102150003B00121A8B41002B0ADB00230193174B23
:102160003200009316483B00FFF726FF0130D8D01D
:1021700000233900B0469C46124A1348536A9942DC
:1021800004D8966A4645CCD29942CAD10668EFF384
:10219000108772B63368002BFCD0BFF35F8F0368E3
:1021A000BFF35F8F66461E6087F3108820BFE5E7A8
:1021B000002AB6D0C9E7C046FFFFFF7FD51A00103E
:1021C0008414002000400540FC3A0020F0B557463A
:1021D0004E46DE464546E0B506000F0085B0EFF3FB
:1021E000058399468B46002B12D0384900204B6A54
:1021F000BB4206D38A6ADB1B591E8B41B242404167
:10220000184305B0F0BCBB46B246A946A046F0BD97
:102210002F4B9A46DB68984653461B7840460393FB
:1022200000F0F6F84246039B040004339B009B58E1
:102230000D001B1A39003000001BA941894510DC34
:102240000DD020BF214A0020536A5B45D9D3926A42
:10225000DB1B591E8B41B24240411843D1E78342F8
:10226000EFD900F0DDF832003B00121A8B41002B51
:102270001ADB00230193174B3200009350463B00BA
:10228000FFF79AFE011E0FDD104B5A6A5A451BD309
:102290009B6AB34216D35046FFF7E6FE0B4A002076
:1022A000536A5B45ADD3D2E7084A0020536A5B45C9
:1022B000A7D30020926ADB1BB24240415A1E9341D1
:1022C00018439EE75A45E6D120BFE4E700400540A9
:1022D00084140020D51A0010F0B5CE4647461100F0
:1022E00080B583B004009C460C9D194300D16CE07E
:1022F0006146DB170193009353401E00019B4B4046
:102300001F0000980199361A8F4163460A996B6045
:102310000B9BAC6029612A606B6100F081F8801929
:102320007941002902DA0120314940422269EFF364
:10233000108972B61368002BFCD0BFF35F8F0223A5
:10234000E65E636972009219D2009B18226990467A
:10235000002E42DB1A886280BFF35F8F002247465F
:102360003A6089F31088234A9860D9601A615A88C4
:102370005D6101325204520C111C002A2BD088B22C
:102380003204024359802069EFF3108772B6016866
:102390000029FCD0BFF35F8FA1881980A680236934
:1023A000BFF35F8F0021196087F3108812482378EC
:1023B0008446013199400120E36863441960EA6072
:1023C00003B0C0BCB946B046F0BD002301260027CB
:1023D00001229C4699E70121D1E7BFF35F8F0023DB
:1023E000136089F31088012200205242E7E7C046BB
:1023F000FFFFFF7F051B00103C20000010B5024AC4
:102400000248FEF7B7FF10BDB06F00103C2D002052
:102410000300416A0A00986A596A8A42FAD17047F1
:10242000034B596A0A00986A596A9142FAD1704777
:102430000040054070B504000D00174A536A1900AA
:10244000966A536A8B42FAD13000190024184D4124
:10245000AB4216D813D0104B2A005B6A9D4203D9B9
:102460000D494B6A9342FCD3934207D10A4A02E0DA
:10247000516A994202D1916AA142F9D370BDA64234
:10248000E9D9054B5B6A1C005A1CEFD001220124DC
:102490006442E5175242E3E700400540064A536AAA
:1024A0009942FCD807D1044B02E05A6A914202D10A
:1024B0009A6A9042F9D8704700400540F8B5040088
:1024C00006200D0000F078F9002844D0374B384939
:1024D000E3185A1E93418022120494465B429B0DDE
:1024E000344A9B0563441360334A136018000A683A
:1024F0009043FBD12D4B314AE31859424B41802187
:102500005B0049000620995200F056F92900C000EE
:1025100000F038FB0130C3091ED14027012262625E
:10252000A362266BF30722D4E36A254B0620E51845
:1025300000232B60266300F03FF93900800000F093
:1025400021FB7023E26A5A400E3313402B601D4B6F
:1025500023630323A364F8BD1B4A93421ED90023BF
:102560001A4A1B4F6262A362266BF307DCD5194B34
:10257000144AE3181A60656AA36A0620AD01ED18D3
:1025800000F01AF9144900F0FDFAAD02010028002C
:1025900000F0F8FA0021FFF74DFFC5E74006800E76
:1025A0009F011A003F180300B9E7C0460080FCBF36
:1025B00008C0004000E0004000F00040183B002050
:1025C0002C10000001030000FEFF0000FFFF0000D0
:1025D000C0FF3F00303000004E0E0000F8B5DE4670
:1025E0004E4657464546E0B58B4605000A99180009
:1025F000160000F0C7FA0A9B6C001F02324B6419E8
:102600009C46A4006444636881469F4200D9676089
:102610002B1FDBB29846012B30D9C02380229B01AF
:10262000E31812011A60294BAD0059599A46002946
:102630001BD17301E026226853401E40802342468E
:102640005B01E3181E60012A30D9802380229B01A0
:10265000E31812011A6053464A4667605A51F0BCAB
:10266000BB46B246A946A046F8BD586900F08AFAB2
:10267000013043001B18033BFDD2DAE75B46012B18
:10268000CBD1C02303229B01E3181A60023AA3684E
:102690001A42FCD07301E0262268AD0053401E4070
:1026A00080230A4A5B019246E3181E605A4621685D
:1026B000514003220A401A6001225B469A40A368F7
:1026C0001A42FCD0C1E7C04600800040402D0020E7
:1026D000F0B546464F46D646C0B51F00344B4400C1
:1026E0009C462418A4006444636888461600FF2BA7
:1026F00002D880235B006360031FDBB29A46012B84
:1027000030D9C02380229B01E31812011A60294BA3
:1027100085005959994600291BD17301E02622688A
:1027200053401E40802352465B01E3181E60012A7D
:1027300030D9802380229B01E31812011A60802384
:102740005B0063604B465F51E0BCBA46B146A846A9
:10275000F0BD586900F016FA013043001B18033B26
:10276000FDD2DAE74346012BCBD1C02303229B01E4
:10277000E3181A60023AA3681A42FCD07301E026FB
:102780002268850053401E4080230A4A5B0191461F
:10279000E3181E6042462168514003220A401A6035
:1027A000012342469340A2681342FCD0C1E7C046D1
:1027B00000800040402D0020014B8000C058704731
:1027C000402D0020F8B5040021481E0017000D0020
:1027D00000F0D8F90100380000F0D4F9069B360467
:1027E0001B031E432368002B20DB1A4B1A49E318F6
:1027F0005A1E93418022920194465B421B0B174A5A
:102800001B0363441360164A13601F000A68974352
:10281000FBD1144B2560E2182123A06013602368CC
:10282000002BFCDA0823E6601360F8BD3F23226822
:102830001340AB42D9D1A3681B051B0D8342D4D1F1
:10284000EE22E368D2021340B342CED1EDE7C04698
:10285000001BB7000040FDBF08C0004000E0004082
:1028600000F000400430000010B580241C4BE4054B
:102870001C6000281AD001231A4C18431A4BDC6143
:102880001A4C44401C62596298628021144BC9055D
:102890001960174817490860E021C9041960002A27
:1028A00007D18022144B12061A6010BD0E4BD8615E
:1028B000EBE753019B1A9B009A18802312015B04DB
:1028C0009A4209D213000D490B60074B5A608022CF
:1028D000094BD2051A60E8E7094B1A00F3E7C04636
:1028E00000B00540D3C007B0008005402D3FF84F31
:1028F000FCFF01000820014000A00540AC31002091
:10290000FFFFFF008023024A9B000B43D362704706
:1029100000800540002310B50100988A1B8B984762
:1029200010BDC046162310B50100188802331B885D
:10293000984710BDF8B54746CE4680B50F1E18D053
:1029400014239946043304000025012698464B467B
:102950001888434621681B88984701C4431E984144
:1029600001350640AF42F2D13000C0BCB946B04696
:10297000F8BD0126F8E7C046002370B504000D003D
:10298000988A05491B8B984703000020002C01DB27
:102990000130A0402900984755420000AA23064A6A
:1029A0001B0113608D235B00D3600449044B196045
:1029B0005368002BFCDA70470040024000B0FA0078
:1029C000006002407047C04610B50148FEF7BAFCEF
:1029D000D46F001070B5074D074EB54209D20024E0
:1029E000013E761BB60808CD984723000134B34258
:1029F000F9D170BDB06E0010EC6E0010054B064AA8
:102A000006491A60064A074B1A6010000B68984383
:102A1000FBD1704700E00040BFCDFBFE08C0004086
:102A2000FE7F3C0000F00040044BDB6C002B03D128
:102A30008022034BD2021A607047C046000011503A
:102A40004C201150044A054B1A60054A1368DB01FB
:102A50008033FBD17047C046FFFFFF0100F000400C
:102A600008C000404022034B9A675A671A67DA662B
:102A70007047C04600F0014010B5FEF7FFFC10BDE6
:102A800070B5044D044CA968C022200000F024FB5E
:102A9000AC6070BD00ED00E000000020002310B528
:102AA000294C82B0A367FFF779FF0122274B1A60F8
:102AB000636C012BFCD10322254B1A60224A936BD5
:102AC000012BFCD1013300930121224A2248043317
:102AD000FFF778FE052301210093204A2048FFF7E5
:102AE00071FE0022022104201E4BFFF7F1FD00229F
:102AF000012105201C4BFFF7EBFD002200210720E0
:102B00001A4BFFF7E5FD002200210820174BFFF7C5
:102B1000DFFD8023DB000093002200210920134BFE
:102B2000FFF75CFD0022104B00210620FFF7D0FDCF
:102B30000420FFF741FE0E4900F024F801000020B8
:102B4000FFF7E0FE02B010BD008000403CB0004046
:102B500030B00040002F685900800240008C86474A
:102B600000C00240001BB70040597307006CDC0234
:102B700040420F0001480421014B1847A0140020D7
:102B800035290010114A936F9B0813D210665166C5
:102B9000002905D0FFE7FFE7FFE7516F106F70478F
:102BA00004B5002801D00020C04304F039F9002109
:102BB00004BDC046F0B5146E556E576F166FFFF723
:102BC000E5FF1466556657671667F0BD000000D034
:102BD00048404140484018B4134B5B68019308BD1E
:102BE00018B4114B1B68019308BD94460F4A926FAD
:102BF000920805D2624618B40B4BDB68019308BDFE
:102C00000A4AF0B5146E556E576F166F6246FFF79D
:102C1000F2FF064A1466556657671667F0BD18B48A
:102C2000014B9B68019308BD081C0020000000D0E8
:102C30000021002805D17047C1174840401AFAD03A
:102C4000C90713B5064B1B6898470CBC441CA2402F
:102C50001005120B0349091B09051943114310BD47
:102C6000F83900201F04000010B54C00620D8023CD
:102C7000D218DB00D21A5B057E2A10DD9E3A13DAE9
:102C8000CC170903490819435242D140640001346A
:102C90001532202A05DAD0400843604310BD0020D9
:102CA00010BD0846604310BDC80FC018013810BDE4
:102CB00010B50148FEF746FBE06F0010132370B516
:102CC0001D78012D19D014DD1D48FFF72BFE0600DD
:102CD0001C48FFF727FE1C4C80223100200000F02A
:102CE000FBF9022D06D01948FFF714FE184B1860A7
:102CF00070BD154C174BA364F5E7174B124C2360BE
:102D00006360A360E36023616361A361E3612362A5
:102D10006362A362E36223636363A363E363236485
:102D20006364A364E36423656365A365E365236665
:102D30006366A366E36623676367A367E367D9E710
:102D40005344000053460000081C00204C33000090
:102D5000F83900205D2D0010B12C001007B5604639
:102D600001880A0A0230DF2AFAD1C9B2820804D3E4
:102D7000028840880004104300E00068014A505077
:102D8000039007BD081C002051434343C9188C46DB
:102D9000110C83B24B4310B4040C614392B280B265
:102DA000504362431C041B0C001910BC594113040E
:102DB000120CC01851416144704700004840414026
:102DC00048400E4B5B6818470C4B1B6818470C4A71
:102DD000936F9B0802D2094BDB681847F0B5146E5D
:102DE000556E576F166FFFF7F6FF054A1466556666
:102DF00057671667F0BD014B9B681847FC390020E8
:102E0000000000D007B548404140484001E0C046BE
:102E100007B54200120E03D0FF2A03D1420218D890
:102E2000C00DC0054A00120E03D0FF2A03D14A028A
:102E30000FD8C90DC9050122414005D4414001D533
:102E4000814207BD884207BD0143491801D0C043F4
:102E5000001807BD00B5FFF7DBFF01D0002000BD63
:102E6000012000BD00B5FFF7D3FF01D9002000BD50
:102E7000012000BD01231B064200D21804D84A00DD
:102E8000D21801D80020704701207047491A002845
:102E900008D1084670470000C10FC90700D540425D
:102EA000002817D0F44603B40B4B1B68984706BCA8
:102EB00081409E384042803107D20B0607D049003E
:102EC000490AC0051043084360470130F8E7490A42
:102ED0008902F5E770470000F8390020014BDB6FED
:102EE00018470000FC390020014B9B69184700007F
:102EF000FC39002010B50148FEF724FA9C70001040
:102F0000132310B510481C78FFF70CFD0100012CAD
:102F10000AD003DD80220D4800F0DEF80C48FFF7F0
:102F2000F9FC0C4B186010BD084C5422200000F036
:102F3000D3F82200084980322368002B00D1216099
:102F400004349442F8D1E9E753460000FC390020EC
:102F50004C330000F8390020F52E0010FF2370B527
:102F6000C20DCD0D1A400C1C2B40B02A3CD8B02B02
:102F700012D84D2A01D84D2B44D9011CFFF73BFF35
:102F8000211C051C201CFFF736FF011C281CFFF725
:102F90001BFFFFF7A9FF70BD002A5BD1FF2B02D0FA
:102FA000DD231B06CC18011CFFF725FF211C051C87
:102FB000201CFFF720FF011C281CFFF705FFFFF76F
:102FC00093FF430002001B0EE5D0FF2BE3D08C21C2
:102FD00089058C466244B82B04D9FF22C00FC00774
:102FE000D2050243101CD6E7FF2A02D0DD221206CA
:102FF0008018002BD7D0FF2BD5D0462BD0D8C90FA7
:10300000CC07D0E7002A03D08C2292059446604476
:10301000002B02D08C239B05CC18011CFFF7EBFE84
:10302000211C051C201CFFF7E6FE011C281CFFF7D5
:10303000CBFEFFF759FF430002001B0EABD0FF2B66
:10304000A9D0DD2109068C466044462BA3D8D20FB7
:10305000D007A0E7462A03D9DD22120680189DE793
:10306000C60FF007FF2B9BD19DE7C04610B50400AB
:1030700002F0E8FF002804D0034B04199C4200D85A
:1030800010BD0248FEF75EF900000420F86F001042
:1030900010B50C0003F0E0FA002804D0034B04192B
:1030A0009C4200D810BD0248FEF74CF900000420F5
:1030B000F86F001010B502F0CFFF10BD01480421D9
:1030C000014B1847B014002035290010014B1B6834
:1030D00018470000B0140020014B5B68184700003F
:1030E000B014002010B5002800D110BD00F04EF93A
:1030F000FBE7C04610B5094A0300146884B0002CF1
:1031000008D0012200910648524203A9A04701209D
:1031100004B010BD00F084F90020F9E7A8310020C8
:10312000E530001000BEFDE7094A030010680028E2
:1031300005D00849C3188B4207D81360704706486A
:103140000449C31810608B42F7D901204042F5E7CB
:10315000A02D002000000420483B002010B5FFF700
:10316000E1FFC04670B5FFF735FC074D074EB5428D
:1031700009D20024013E761BB60808CD98472300EB
:103180000134B342F9D170BDEC6E0010F46E001042
:10319000030010B5080011001B68984710BDC04619
:1031A000F0B5C64600B5437D07000C001600002BA5
:1031B00046D0002A17DD0B780A2B24D0002398462E
:1031C000012E13D001252900635C01350A2B26D07E
:1031D000B542F8D1464509DCA419013C23780D3BE2
:1031E0005A4253413B7580BCB846F0BD4346E01897
:1031F000A419F11A013C3B68984723780D3B5A42C9
:1032000053413B75EFE7037D002BD7D102210F48D7
:103210003B689847012EDFD001239846D2E7631E12
:103220005B5C0D2BD4D0884504DA4346C91AE018FC
:103230003B689847022105483B68A8469847C7E77E
:103240000368110020009847CDE7C0469471001034
:10325000F0B54546DE464E465746E0B583B091464A
:103260001C0080460D00FFF7DBF80023304A1218DF
:103270004B41002B02DA01222E4B52422E4908000C
:103280008A4603F0FDFD07006B1C03D1404603F0A6
:1032900023FC0500002C27D0284E294B1C68002C4D
:1032A00018D04B46002B21D1264B994602E02469C9
:1032B000002C0FD02368002BF9D04B461B68002B45
:1032C00001D09C42F3D120002A004146B047246936
:1032D000002CEFD1002F26D1280003B0F0BCBB4654
:1032E000B246A946A046F0BD174ED6E7154B994603
:1032F0000A239B4602E02469002CEBD02368002BB4
:10330000F9D04B461B68002B01D0A342F3D12A0011
:1033100041462000B0476B465A462000DA71D91D5D
:103320000122B047E7E7504603F06AFDD4E7C04604
:1033300040420F00FFFFFF7F781A0020A1310010EC
:10334000902D00209C2D0020913100100A4A136816
:10335000002B05D10CE01A001B691032002B07D09E
:103360008342F8D1002902D11869106019617047B1
:103370000029FCD01060FAE7902D002010B500F075
:103380003BF900F077FB012010BDC046F0B5CE46FA
:10339000474680B583B06B460600DD1D2870FFF7F9
:1033A0003FF80023194A12184B41002B02DA012280
:1033B000174B524217490800884603F061FD164B2F
:1033C00081461C68002C14D0144F02E02469002CA4
:1033D0000FD02368002BF9D03B68002B01D09C4212
:1033E000F4D1200001222900FFF7DAFE2469002C25
:1033F000EFD14B46002B05D1300003B0C0BCB9461D
:10340000B046F0BD404603F0FBFCF5E740420F003C
:10341000FFFFFF7F781A0020902D00209C2D0020B8
:1034200070B5040003F058FB0123010005000122E0
:103430002000FFF70DFF084B1C68002C06D06368C6
:10344000002B05D098472469002CF8D1280070BDC6
:103450002469002CF3D1F9E7902D0020F0B5002964
:1034600015DD0E4B0D271A680D4B0E4CD3185D421F
:103470006B41451820215B001E5F0478A64207D0EF
:1034800093691942FCD101301460A842F5D1F0BD16
:1034900093691942FCD11760F2E7C0461C3B00203B
:1034A0000080FCBF183B0020204B70B504000D1EAF
:1034B0001E682ADD002010211D4B013C1A6893690B
:1034C000194214D1013093691942FCD11368235475
:1034D0008542F4D1002E08D050239363516B183BE2
:1034E0000B4014498C4662441360280070BD002EC6
:1034F00008D050239363516B183B0B400D498C4609
:10350000624413600028F1D10CE0002E0AD0502252
:10351000074B1B689A63596B183A0A4005498C4659
:1035200063441A6003204042E0E7C046282D002093
:103530001C3B002034100000064B10B51B68002B0C
:1035400006D00021044A12689163044A1068984723
:1035500010BDC046282D00201C3B0020302D00202F
:103560000822034B19688B691A42FCD17047C04688
:103570001C3B0020F8B51A4F1A4B3A680500D318C7
:1035800058424341184E14331C003368002D02D0BA
:10359000002B0FD0F8BD002BFCD00021200095633C
:1035A000FDF78CFF20001149FEF7E4F8104B356061
:1035B0001D60EFE70E4B200019600C493560FDF7E8
:1035C000B5FF01212000FDF779FF50223B689A6387
:1035D000596B183A0A4007498C4663441A60D9E788
:1035E0001C3B00200080FCBF282D00203935001036
:1035F000302D0020341000000D4B10B51B780D4B02
:103600000D4C1B780D4B02211B780D4B00202360C5
:10361000FDF7BAFD02210120FDF7B6FDE12120688A
:103620004902FEF74BFF01210648FFF78FFE10BD50
:103630003C740010387400101C3B002034740010DF
:1036400000400340C01400207047C0460022014BD8
:103650001A7070473B3B00204B790020FF2B0BD1A9
:103660008B79002B08D1CB79012B05D1082A03D9FE
:10367000024B8A7809301A707047C0463B3B0020E5
:103680000120704710B5012913D1124953791079DF
:1036900009781B0203430020994200D010BD5378E3
:1036A000012B08D0022BF9D1642200210020FFF762
:1036B000DBF80120F2E7D37891781B021943480A1E
:1036C000DB0501D4012040427F238A05D20F194037
:1036D000FFF752F93B3B0020004870477C72001016
:1036E00070B5050014000120012909D1537800208C
:1036F000012B05D1637912791B021343072B00D0EC
:1037000070BD21002800024A9F3301F055FAF7E707
:10371000D47100100123037000487047B471001089
:103720004B780A781B0213438A7810B512041A43A7
:10373000CB781B0613439622D200934200D010BDD3
:103740000022012011004042FFF716F9024B1860D9
:10375000024B19607047C0462C2D0020342D0020EC
:1037600010B5024B1878FDF7C7FE10BD3C3B00209A
:10377000154B70B51A68002A22D0EFF3108172B68B
:1037800010680028FCD0BFF35F8F00200F4A5960FB
:1037900010701B68BFF35F8F186081F310880024DE
:1037A00000250B4E3078FDF79BFE002804D1002445
:1037B00000252900200070BD3078FDF79DFEF8E758
:1037C000FA240025A400ECE7CC390020423B00207D
:1037D0003C3B002070B5040000200E0001F00AFB05
:1037E000002834D0002001F01BFB00282FD0FEF76A
:1037F00017FE0023174A12184B41002B16DB164DFB
:10380000280003F03DFB002821D0002001F0F2FA4F
:1038100000280FD101200021404200F001FD0324C7
:103820006442280003F0ECFA200070BD01220B4B2B
:103830005242E4E7002001F0F3FA0028EAD0210028
:103840003200002001F0F6FA041EEAD1E7E7032473
:103850006442E9E740420F00003B0020FFFFFF7F8A
:1038600010B5FEF7DDFD00230D4A12184B41002B69
:1038700002DA01220B4B52420B4C200003F000FBFA
:1038800000280CD001200021404200F0C9FC00209B
:1038900001F014FB0028F5D1200003F0B1FA10BDAF
:1038A00040420F00FFFFFF7F003B0020F8B5DE46DF
:1038B000574680B505000C00FEF7B2FD0023364ADE
:1038C00012184B41002B02DA0122344B5242344988
:1038D00008008A4603F0D4FA002803D1C0BCBB46D6
:1038E000B246F8BD002001F085FA00284AD0002633
:1038F000002C43DD2B4B9B4614E0A919002001F05E
:1039000017FB070001200021404200F089FC002045
:1039100001F0D4FAFEF784FD224BF61918605960C5
:10392000B4422BDD002001F023FBA71B0200B842AC
:1039300000DD3A00002AE0D101200021404200F0E1
:103940006FFC002001F0BAFA002001F053FA0028C1
:1039500014D0002001F00CFB0028E1D1FEF760FD3F
:103960005B460F001A685B68002184460E481218F7
:103970004B419F4202D8D3D19445D1D9504603F050
:103980003FFAABE700200021064B18605960504613
:1039900003F036FAA2E7C04640420F00FFFFFF7F68
:1039A000003B0020001C002020A1070030B52A4C5D
:1039B00085B00021200003F043FA00281CD1274BDA
:1039C0001A68002A16D0EFF3108172B6106800282A
:1039D000FCD0BFF35F8F01242148596002781B6837
:1039E000D2B20470BFF35F8F0020186081F310889B
:1039F000002A17D005B030BD01200021404200F060
:103A00000FFC002001F00CFA0500200003F0F8F98B
:103A1000002DEFD0134B1B68002BEBD0124A10681F
:103A20009847E7E7FEF75CFA0400FEF7F9FCFA2294
:103A30000023920012184B41002B02DA01220B4B9B
:103A40005242012102910021019109492000009177
:103A5000FEF74AFACEE7C046003B0020CC390020F2
:103A6000423B00202C2D0020342D0020FFFFFF7F43
:103A700071370010D02310B51B0684B01C68FEF708
:103A80002FFAFEF72BFBA04202D0002004B010BD9D
:103A9000294B002100201B7801F05EFD27480368B8
:103AA000002B45D00120FDF7A9FFFF23244C254919
:103AB00020701840FDF73AFD20780121FDF7FEFC4B
:103AC0000520FDF721FD002824D1082200211E48F1
:103AD000FFF7FCFAFEF704FA0400FEF7A1FCFA2255
:103AE0000023920012184B41002B02DA0122174BDF
:103AF00052420121029100210191154920000091BB
:103B0000FEF7F2F90028C0DB12480121FFF71EFC86
:103B10000120BBE70120FDF79FFC0B4B01001800C3
:103B2000FDF7CEFF002205200B49FDF729FDEBE74D
:103B3000FDF7AAFFB6E7C04640740010003B002026
:103B40003C3B0020AD390010CC390020FFFFFF7F47
:103B500071370010D81400206137001000487047FA
:103B60001873001000487047C472001010B50400AC
:103B700017480378002B20D0002C06D1154B16488F
:103B80004380063BFF3B038010BD052C1DD8134B23
:103B9000A400E05812490123013804E001330A80EF
:103BA0000231142B0DD0C25C002AF7D1C022DBB247
:103BB0005B00920008481343E5E7112100F01AF872
:103BC000DAE7CA2304489B00DDE70020DCE7C046B3
:103BD000203B002009040000682D0020AC7200107A
:103BE0006A2D002010B5024800F0D8F810BDC0467C
:103BF000F039002030B54B1E012900D1A7E0664AFC
:103C000011780D092C0030349F2900D9A2E00470EE
:103C1000012B00D1BEE00F21147821400C0030347C
:103C2000092900D998E04470022B00D1B2E0547801
:103C30002509290030319F2C00D990E08170032B99
:103C400000D1A7E00F2121400C003034092900D910
:103C500087E0C470042B00D19CE0947825092900EA
:103C600030319F2C00D97FE00171052B00D191E00C
:103C70000F2121400C003034092900D976E044712D
:103C8000062B00D186E0D4782509290030319F2CFD
:103C900000D96EE08171072B00D17BE00F2121401C
:103CA0000C003034092966D8C471082B00D171E0AA
:103CB00014792509290030319F2C5FD80172092B16
:103CC00068D00F2121400C003034092958D84472A3
:103CD0000A2B5FD054792509290030319F2C52D806
:103CE00081720B2B56D00F2121400C003034092952
:103CF0004BD8C4720C2B4DD0947925092900303152
:103D00009F2C00D9073101730D2B43D00F21214087
:103D10000C003034092901D937310C0044730E2BC3
:103D200038D0D1790C09220030329F2900D90732CE
:103D300082730F2B2ED00F220A4011003731092A2F
:103D400001D830321100C173102B23D01030002362
:103D5000037030BD07345AE737310C0063E7073191
:103D60006CE737310C0074E707317DE737310C0021
:103D700085E707318EE737310C0095E707319DE77E
:103D800037310C00A3E70731AAE737310C00C472C2
:103D90000C2BB1D1C018DAE7F039002010B588B08B
:103DA00004000D2200216846FFF790F90D22002142
:103DB00004A8FFF78BF94B236A466846137004A9E1
:103DC0000D2203F015F81521082220006944FFF7A1
:103DD00083F908B010BDC046F8B500F047F90C23D0
:103DE000194DFF22AB6705201849FDF7C9FB184C98
:103DF000402200212000FFF769F940270023012617
:103E00002121144A66702783A260136063545F31D6
:103E1000618445396354104A10496360E260278722
:103E2000A1620B606362E26203F012F880239B05DB
:103E30002E64EB6490230A4A0120EA508022094B49
:103E40005202DA64F8BDC04600001150F9040020A7
:103E5000A42D00208400105000011050800010504C
:103E600010D001000020115010B501210520FDF7F0
:103E700025FB10BD10B500220021024800F016F904
:103E800010BDC046C42D0020044B1970002904D079
:103E900080219023024A8902D1507047373B00208D
:103EA000002011500B785B0602D14B78052B00D017
:103EB00070478A78014B1A60FAE7C046000011503B
:103EC000F0B5C646C87800B58007830F1800012BEF
:103ED00060D08F780A794B797F213940FC091B0229
:103EE0004E001343334D32195201AA18977001271F
:103EF0006740577000275B055B0DD7701383D07642
:103F0000B846CA00012C32D02B4FBC468F01624408
:103F1000BC46AC446746BA6047461760002932D0B9
:103F2000264AC90090466246414451603F223F33D1
:103F30009343022837D0224937190A687F01D318E2
:103F40000B602049EF19FA608B422ED836197601A2
:103F5000AD19EB7E1C499B064A4013438022120692
:103F600013436A681360012080BCB846F0BD174F48
:103F7000BC468F016244BC46AC446746BA624746C1
:103F80001760002908D1002364012C196360104BCD
:103F9000E360E8E70020E7E70B4AC9009046624685
:103FA00041445162C2E75B00C5E7FEF70DFDFA68C8
:103FB000CCE7C046A42D002084001050040010500F
:103FC000B0390020FF0F105000001050800010503A
:103FD0000001105010B502F03BFF10BD10B57F205E
:103FE0000C0020404000E409110000191A00034BA6
:103FF0004001C01800F05AF8012010BDA42D002087
:104000007F23180000B5084083B00B4204D14B4217
:104010004B41084A013393668022C9094000064B90
:10402000401840010021C018120102F039FF03B00E
:1040300000BDC04600201150A42D00207F22130097
:1040400010B50B400A4200D110BDC9095B005B18D6
:1040500004485B01C018002300220349C37002F02A
:104060001FFFF1E7A42D0020FFF7FFFF80220A4B7E
:10407000520410B51A60094B09491A6010000B6808
:104080009843FBD18022002152010648FFF71EF819
:104090000922054B5A6710BD00E0004000F00040C7
:1040A00008C000400000105000001150002310B55F
:1040B000C3820133828283760161040002F090FEA4
:1040C000002804D080219023074A8902D150200083
:1040D00002F0CEFE002802D00123237710BD20007D
:1040E00002F0D6FEFAE7C046002011507047C046E5
:1040F0007047C04600207047002070477047C04698
:104100007047C0467047C0467047C046024B58785B
:10411000431E9841C0B2704728200020024B1878F7
:104120004007C00F7047C04628200020F0B5D64693
:104130004F464646C0B52F4B07009A461B780E00E7
:10414000FF2B50D1002941D0002154222A48FEF7EC
:10415000BDFF0022294C2A4B20001A70FDF794FC69
:10416000284B1C60284C2000143CFDF79BFC2000D1
:1041700001F0FAFD254B264D1C60264B002B04D088
:104180002800FFF7C7FA244B186024490024894609
:104190002149002388462A7810E043461B686201C3
:1041A0009B18002B12D05B68002B0FD098472A7801
:1041B0000134E4B2511C2300A14209DBA242ECD835
:1041C0009B1A5B014B445B68002BEFD100200BE096
:1041D0005346310038001F70FFF7FEFD0028F5D070
:1041E0003800FFF741FE0120E0BCBA46B146A846C0
:1041F000F0BDC0460C150020282000202020002003
:10420000383B00207C200020041500208020002066
:10421000363B002015370010781E0020D4730010A4
:10422000F0B5DE4657464E464546E0B5C84B91B020
:1042300002931B78FF2B00D13EE1C64BC64E9B4636
:104240005F46C64B0DAC0193C54B009335686A6958
:10425000EFF3108172B61368002BFCD0BFF35F8FB1
:10426000A9612800210001F0AFFB6A69AB69BFF3C7
:104270005F8F0021116083F31088002800D11BE1BB
:104280006378082BE2D89B00FB589F466368002B9D
:10429000DCD0A0689847D9E77F222179AF4D0A404A
:1042A0005300EB189846C80980444046012330303B
:1042B00005799D430571057903339D430571002AF6
:1042C00000D100E14346A74A1B7D1278934200D3F8
:1042D000EFE0A54A5B011568ED18002D00D1EBE079
:1042E000A36862792078AD69A847AFE79F4A137841
:1042F000002B00D1E0E01378013BDBB213701378A0
:10430000002BA3D10122954D01212B7804201343CA
:104310002B703423EA5C8A43EA54EA5C8243EA5411
:104320000133EA5C8A43EA54EA5C8243EA54237824
:1043300000209B4600F09EFC602223791A40602AF0
:1043400000D1EFE0402A00D1F5E0DB06DB0E012BC7
:1043500000D113E1022B00D1C7E0002B00D0E1E037
:10436000202A00D11CE2002A00D0DBE06379092B6F
:1043700000D9D7E07E4A9B00D3589F46774D2B78D3
:10438000DB0700D462E7FFF7BFFE5FE7019BDB7846
:10439000DB0700D45AE76068FFF7AAFE56E76F4DC7
:1043A0002B78DB0700D451E728780007C00FFFF710
:1043B000A9FE4BE723786A4999468B46694B6A49BF
:1043C00098468A4639001A7847460023B0460025A9
:1043D0004E46894610E053461B686A019B18002B25
:1043E00000D176E0DB68300098473A780135EDB2CD
:1043F000511C2B008D4244DC9542ECD39B1A5B018F
:104400005B44EFE7237858499946564B8A469846CD
:104410003100BB464E461A780025002347468946A0
:104420000FE053461B686A019B18002B55D0DB68D0
:10443000300098473A780135EDB2511C2B008D427F
:1044400007DC9542EDD39B1A009A5B0194466344C6
:10445000EDE7019D542200212800FEF737FE1022CF
:10446000FF214448FEF732FE28002022FF211430AD
:104470004E465F46FEF72AFE00F0F2FBFFF740FED5
:10448000E4E6364D542200212800FEF71FFE1022DC
:10449000FF21281DFEF71AFE28002022FF211430DC
:1044A00046464F46FEF712FE00F0DAFB2379AB706A
:1044B000CCE6501C984213DA11B0F0BCBB46B246B1
:1044C000A946A046F0BDA3686279207800F0E6FB1B
:1044D000BCE646464F46214DE6E74E465F46CBE7F3
:1044E0001F4D9B1A5B015D19FAE67023217A0B427E
:1044F00018D1C80982460F330B405B009846194813
:10450000EB1853441B7D00789946834266D21648C7
:104510005B01006881469944002A00D15FE14B4667
:10452000002B68D120780021FFF76AFD80212078D8
:10453000FFF766FD8AE6104800F09CFB0121584613
:104540000EAAFFF7CDF8002800D07FE6EAE7C046C4
:104550000C1500202C730010802000202820002043
:10456000D4730010363B0020781E0020383B00201A
:10457000507300102C200020E1360010237A0F2BFE
:10458000D0D8CF4AEB181B791578AB423ED3691CC3
:104590009942C7DB5D1BCB4B6D01ED18686900F0DC
:1045A00069FB012158466B690EAA9847002800D084
:1045B0004CE66022150023791D401A42B2D163797E
:1045C0000A3B012BAED800F055FB63790A2B00D1D2
:1045D00099E158460EA900F0D9FA37E6431C4B453D
:1045E00000DAF7E04B461B1A5B019946B548814457
:1045F000002A00D1F3E04B46586900F03BFB4B46E4
:10460000012158465B690EAA98479CE7AE4A5B01B8
:104610001568ED18002DC1D184E7A37999466B7810
:104620009945D6D06B78002B00D033E14B466B70A8
:10463000002B00D12BE148460138C0B2FFF792FAB7
:10464000002800D17EE143780793022B00D079E166
:104650000122C179B1468B11491113400A40302122
:1046600012015B0113432A78A8468A4313432B7037
:1046700009239A4682445646BA46C37882781B027A
:104680001343C31805938E4B04938E4B08938E4BA4
:1046900009938E4B0A93059BB34200D855E173787A
:1046A00001220B2B03D13378F278F6187378042BA0
:1046B00000D044E1059B00279B1B9BB20693049B03
:1046C0000B921D78002303931BE0099A7B01156868
:1046D000ED18002D00D132E1310058462B69069AC1
:1046E00098478446082803D9069A824200D313E1EA
:1046F000049B01371D78FFB26B1C03979F4200DDBE
:104700001DE1BD42E1D8039B5D1B089B6D019C46EA
:104710006544E1E76B780CAA023213705846012316
:104720000EA900F049FA91E5E3881A0AD8B20F2AD7
:1047300000D9F7E666499300CB589F460EA800F0D3
:104740009FFA5846A179FFF795FB02222B78134375
:104750002B707BE5E388012B00D0E3E608222B7861
:10476000584693430EA92B7000F010FA6EE5022014
:1047700029780CAB9A1C8B068908DB0F01400B4390
:104780001380584602230EA900F016FA5EE5E3886E
:10479000012B00D0C6E608222B7813432B7018E7B4
:1047A000237A0F2B00D9BDE6EB181D79444B1B78FB
:1047B0009D4228D2444B6D011B685D19002D00D12C
:1047C000B0E6686900F056FA012158466B690EAAF6
:1047D0009847B8E6002A00D0A4E6002399466279FB
:1047E0000220130003928343012B15D0002A00D02E
:1047F00098E62B004344534430331B790CAA9B07A3
:10480000DB0F0232BCE75A1CAA4200DA8AE6ED1A34
:104810002C4B6D01ED18D4E7E388002B12D1029BDD
:104820001878039B012B23D0FFF7EAFB43460221B4
:10483000EB18534430331A790A4301211A711A795B
:104840000A431A714B46002B00D1FFE4586900F06F
:1048500011FA4B4601215B690EAA58469847002081
:1048600000F008FA3523EB5CDB0700D5EEE4B0E698
:10487000FFF7E4FB43460221EB18534430331A7927
:104880008A431A711A7903998A431A71DAE7FFF792
:1048900037FC9EE600215846FFF7F6FA5846FFF728
:1048A00099FBAB78074903930491054B0649984659
:1048B0001A780591002329001D008A461BE0C04696
:1048C000363B0020D4730010781E00203C200020CE
:1048D00078730010059B6A011B689B18002B4DD054
:1048E000DB685846984743461A780135EDB2511CAB
:1048F0002B008D422EDC9542ECD39B1A049A5B016F
:1049000094466344ECE70CAB9A1C584601230EA96D
:10491000157000F051F999E40B9A012A4FD0002A42
:104920003CD00023B07804E00133DBB20F71934236
:1049300034D2C118C9B241440D79FF2DF4D04E468E
:104940004546574600236B70ECE54E465746FFF749
:10495000D5FB3EE65546542200212800FEF7B6FB63
:104960001022FF21281DFEF7B1FB28002022FF2185
:104970001430FEF7ABFB039BAB7057E65546FAE7E6
:10498000FEF7AAFE021E00D1CCE5D37891781B0277
:104990000B4358460EA900F00FF9D4E565463B00DD
:1049A0002A0031000A9800F07FFEAC46049B039A6F
:1049B0001B7866440133934200DB6CE6BFE7174B7C
:1049C00029699942ADD1079AABE7FFF793FB021E25
:1049D00000D1A7E5584613780EA900F0EDF8B2E52E
:1049E0002189FFF7C3F8021EF4D19BE5022A0FD0FC
:1049F000FFF782FB021EC8D194E5FFF7AFF8021E55
:104A000000D18FE5122358460EA900F0D5F89AE59B
:104A1000FFF7A8F8021EB8D184E5C0467150001017
:104A2000F8B557464E46DE4645460C00E0B5160042
:104A30001F00002A3CD0702398461E4B00259B4641
:104A40001D4B9A461AE05B461B7820009946534658
:104A5000997800F0EBFD00281CD021004846FFF7B4
:104A60002FFA002816D0A378DA09012A19D00A9A59
:104A7000013513702378E418B54219DA6378052BF1
:104A800008D1E3789B079B0FBB4203D14246A37832
:104A90001A42D8D00020F0BCBB46B246A946A04678
:104AA000F8BD0B9A013513702378E418B542E5DBA5
:104AB0000120F0E70C15002028200020702270B59E
:104AC0008B780C001A4201D0002070BD064B2000EC
:104AD0001D78064B997800F0A9FD0028F4D021003C
:104AE0002800FFF7EDF9F0E70C1500202820002042
:104AF0000B007F2010B51840DB0934334000044A16
:104B0000C018044B1168C01800F04CFD10BDC04621
:104B10007C200020282000200B007F2010B51840AA
:104B2000DB0934334000044AC018044B1168C01834
:104B300000F060FD10BDC0467C2000202820002031
:104B400070B57F240F480C4064000419CD09641926
:104B500030342079C00701D5002070BD01262579A9
:104B60000948354300782571FFF738FA0028F4D159
:104B700001222379934323712379033293432371D1
:104B8000EAE7C046282000200C15002070B5094C2B
:104B90000600082220000D00FEF79EFA0023802167
:104BA000E360A3602B783000994300220023FFF7D5
:104BB000C7FF70BD08200020F8B5CE464746904696
:104BC000254E80B58146082230000D001F00FEF7FB
:104BD00083FA4346B3600023F381EC79AB79240276
:104BE0001C43231CBC4200D93B1C9FB2B381002C48
:104BF0000DD0002F17D04246002A2BD0402F1BD8B3
:104C00009FB233787F2B1CD80021144A0FE08021FB
:104C10002B780022994348460023FFF791FFC0BC40
:104C2000B946B046F8BD7F230022317899433B0056
:104C30004846FFF785FFF2E740239FB233787F2B8A
:104C4000E2D9064C3A0041462000FEF745FA8021A1
:104C50002200ECE70020E2E708200020C81F002027
:104C600010B5142200210248FEF730FA10BDC046EC
:104C700008200020014B18617047C0460820002022
:104C800010B5054C010008222000FEF725FA00238C
:104C9000A360E36010BDC0460820002070B5384C0A
:104CA0001D0023780600DA09C9098A4210D00020C5
:104CB000002D00D070BD21003000FFF7F3F823690C
:104CC000002B03D022000321300098470120F1E798
:104CD0007F2B06D8A068002834D02A002949FEF787
:104CE000FBF9E289A1685219E38892B24919E2817D
:104CF000A160934214D03F2D12D9A389981A051CA4
:104D000080B240282AD82078ADB27F2828D8002148
:104D10009A4232D01B4A2B003000FFF711FFC9E73F
:104D20002369002B05D0220002213000984700287B
:104D30000AD0802123780022994330000023FFF716
:104D4000FFFEB7E70020B5E700213000FFF758F974
:104D500030008021FFF754F90120ABE74025D2E76E
:104D60009A4207D0074C2A002000FEF7B5F98021AF
:104D70002200D0E780210022CDE70022CBE7C04609
:104D800008200020C81F002070B50400FFF7BEF9FE
:104D9000002800D170BDFFF7C1F90028FAD1C8235F
:104DA0006343124DEE18F1780029F3D010335D19EA
:104DB000280000F0F3FD3F28ECD90020F178FFF740
:104DC00097FE0028E6D0280000F0E8FDF1783F28A3
:104DD00007D9074BE201D21800204023FFF7B0FEAD
:104DE000D8E70020FFF798FED4E7C046001F002058
:104DF0007C1E002010B50400FFF788F9002801D1BF
:104E0000002010BDFFF78AF90028F9D1C8226243BB
:104E1000024B01309B181B791840F2E7001F00205D
:104E2000C82310B543430248181800F099FD10BD7F
:104E3000101F0020F8B5C824802344431C4F1034B1
:104E400005003C195B029A4200D31A4A200092B234
:104E500000F008FE0600FFF759F9002801D13000E4
:104E6000F8BDFFF75BF90028F9D1C8236B43FF18A1
:104E7000FB78002BF3D0200000F090FD3F28EED906
:104E80000020F978FFF734FE0028E8D0200000F079
:104E900085FDF9783F2807D9074BEA01D218002091
:104EA0004023FFF74DFEDAE70020FFF735FED6E797
:104EB000001F0020FFFF00007C1E0020F8B504004A
:104EC000FFF724F9002801D10020F8BDFFF726F9EB
:104ED0000028F9D1C82565432E00134F2436F61952
:104EE000300000F03DFD0028EED07F190020B97899
:104EF000FFF7FEFD0028E7D00C4DE40165192900FD
:104F00004022300000F0AEFDB978041E08D0030046
:104F10002A000020FFF714FE0028D5D02000D4E797
:104F20000020FFF7F9FDCFE7001F0020BC1E002086
:104F300070B5C82444430C4B0500E41880235B0281
:104F40009A4200D3094A200092B200F051FE0600B6
:104F5000200000F005FD3F2801D8300070BD28007A
:104F6000FFF7ACFFF9E7C046241F0020FFFF000059
:104F7000C82310B543430248181800F00FFD10BDB8
:104F8000241F0020F0B50025184C83B0C822002152
:104F90002000FEF79BF8164B21001D70FF23637164
:104FA000E1235B02A360200008234022A373383171
:104FB0000095073B103000F09DFC270001232100E5
:104FC00020002600402278310093B837243000F0CA
:104FD00091FCC0363800FCF757FD3000FCF754FD5B
:104FE000E56127622663656303B0F0BD001F002002
:104FF000FC1E00200A4A116B136A00290CD0002BFA
:1050000007D00023D361536313630023136201208D
:10501000704753631363FAE7002BF8D0D161F4E7CC
:10502000001F002070B50F4C052200212000FEF764
:105030004DF80D4D2B78DA0707D50C4C9B070CD596
:105040000121200000F0B0FE70BD2000103000F003
:105050008BFE2B78054C9B07F2D4200000F084FED9
:10506000EEE7C046001F0020FC1E0020241F002089
:10507000F0B54B79060083B0022B02D18B79022B5D
:1050800003D00025280003B0F0BD204FBB78002BD3
:10509000F7D18B7809253B700C780C196378242B99
:1050A00007D00CE02378E4185D196378ADB2242BA7
:1050B00005D19542F6D90020FFF766FEE2E71A0017
:1050C000052B15D0042AF6D163790A2BF3D1104BA6
:1050D000277801930133009330000223E119023A4B
:1050E000FFF79EFC0028CCD00E35ED19ADB2E2E7FB
:1050F00021003000FFF7E2FC0028C2D0A3787B70CB
:1051000023785D19E4186278ADB2DBE7001F002058
:10511000021F0020F8B56023140012780500134028
:105120000020202B07D1304A6379277916781B029B
:105130003B439E4200D0F8BD6378222B1AD007D89B
:10514000202B34D0212BF6D101293ED00120F2E7CB
:10515000232BF0D1012940D00329F7D1234B002B79
:10516000F4D0E178A37809020020194300E000BFE1
:105170000120E0E7012930D00329E7D101252E00E5
:10518000A378E478023924021C43147126402432A7
:105190001000714000F008FE154B002BD6D06208BD
:1051A000002031002A4000E000BF0120C3E70129B0
:1051B0000BD00329CAD10F4B002BC7D008320020D7
:1051C0001100FEF7ADFA0120B5E707232100280002
:1051D000094AFFF7F1FC0120ADE721002800FFF7A5
:1051E000D5FC0120A7E7C046001F002000000000FA
:1051F0000000000021370010081F0020F0B54F46C6
:105200004646D646C0B5364D8046EA780C001F00AB
:105210008A423CD0AB788B4210D00020E0BCBA462A
:10522000B146A846F0BD2F4B002B04D02E4800F00D
:10523000ADFB002851D00020FFF7A6FDAB78A342BC
:1052400001D00120EAE7294B002B02D0002000E02A
:1052500000BF0020FFF732FE0028F2D1244C2000CE
:1052600000F07EFB0028ECD1002FEAD0BF06E8D189
:10527000243C4046A178FFF73BFC0028E1D0002306
:1052800000224046A178FFF75BFC0120C6E79AB2F6
:1052900010239A46174EAA443100504600F0A8FC4D
:1052A000154B002BBFD06B79FF2BBCD0002FBAD091
:1052B000F219914603E001364E45B4D06B7932784D
:1052C0009A42F8D1504600F061FB0028F3D15346D2
:1052D000103B597900E000BFEDE700E000BFAAE70E
:1052E000001F002000000000101F00200000000030
:1052F000241F00207C1E0020000000009322F0B537
:10530000134C85B0002120009200FDF7DFFE230042
:105310002000802640270F4D4D337600FF33293083
:105320000295009300220023002103970196FF308D
:1053300000F0D4F94035201D28340023012200213B
:10534000039702950196009400F0C8F905B0F0BDEE
:10535000C42100204421002010B5054C200000F09D
:10536000F3F920002538FF3800F0EEF9012010BDD8
:10537000EC22002070B5084C002520003130FF30B1
:10538000257000F0F1FC20000C3000F0EDFC2A2329
:10539000FF33E554657170BDC4210020F8B5574650
:1053A0004546DE464E46E0B54B7980460F00FF2B62
:1053B0005BD1404B99462A234946FF33CB5C002BF7
:1053C00053D14E79002E50D1BB783C780B703B798D
:1053D0003C19002B46D098235B004B449A460C2383
:1053E0004B449B46A51803E0AC423BD22378E4181B
:1053F0006378052BF8D1AC4234D221004046FFF748
:105400005DFB002831D0A3780136F6B2DB09012B11
:1054100032D0504600F0A8FC2A234946A278FF3338
:10542000CA54637922791B021343234A5B059446CD
:105430005B0D942163445A4253414A46022049007D
:10544000525C5B00824313434A46535451464046E4
:10545000083900F0E3F9002807D02378E4183B79F5
:10546000B342C5D8E01B80B200E00020F0BCBB46D0
:10547000B246A946A046F8BD584600F075FC5A460B
:10548000A3780C3A5371637921791B020B430A49C3
:105490005B058C465B0D634459424B4102201179F8
:1054A0005B0081430B43594600200839137100F01B
:1054B00081F9D2E7C421002000FEFFFFF8B52A25BC
:1054C00006001F48FF35455D1F008D4215D043790A
:1054D0008B4201D00020F8BD1A4B002B04D03904B8
:1054E0000020090C00E000BF174C3000210000F044
:1054F00061F900281DD00120EDE79A235B00C35A13
:10550000002B0DD1114B002B04D000201049BAB252
:1055100000E000BF30000F4900F080F90120DAE719
:1055200096235B00C1583130BAB2FF3000F060FB07
:10553000E8E73A002100300000F008F90120CAE74E
:10554000C421002000000000C8210020000000004D
:1055500044210020EC22002000B5030083B0002984
:1055600010D00020012B07D80A78002A04D00C485C
:10557000C2540120012A01D003B000BD1800FEF77B
:10558000D5FDF9E701236A46002001A99380FEF7C3
:10559000CDFD0028F0D00122014B1A70ECE7C04687
:1055A0001C200020037870B5DB0704000E00DD0F1F
:1055B000002B17D103785B0701D5280070BD0121AE
:1055C0003000494201F04CFC2378DB07DD0F002B53
:1055D0000AD123785B0708D40422237801251343DA
:1055E000237002E00025E8E70025300001F008FC08
:1055F000E3E7C04670B50C000121060049422000D7
:1056000001F02EFC33785B07DD0F002B04DB20005C
:1056100001F0F6FB280070BD3378DB0704D40422C8
:10562000337893433370F2E70025F0E7437902794A
:105630001B021343C2785B0592075B0D920F022A8F
:105640001DD0032A0CD00020012A08D102394A4279
:105650005141124A9446614499424041C0B2704758
:1056600002394A1E91410E4A494211408022D2001D
:1056700094460020614499424041C0B2EFE70229BC
:1056800005D0002040229A424041C0B2E7E7054AD7
:10569000981843425841C0B2E1E7C046FF030000FA
:1056A00040FCFFFF00FEFFFF8A1870B5914207D251
:1056B0007F264C78052C04D00C7809198A42F8D83A
:1056C00070BD34008D782C4064000419ED096355D9
:1056D0000C7809198A42ECD8F2E7C046F0B5C64604
:1056E00000B582B0150008AA40CA040017886A46AF
:1056F000928D012090460A002178024081432000CB
:10570000114321703A00009331000123083000F06A
:10571000F1F8002E01D0002F08D10A9B0120636010
:105720004346638002B080BCB846F0BD26001C36FC
:105730003000FCF7A9F90023002D01D0330000262A
:105740006361A661E9E7C04601207047F8B502240D
:105750000B7807001C4063425C41144B64421C40C0
:10576000134B08009C4608300D001600644400F0FE
:10577000F7F8002807D1002E05D0344203D10124C8
:105780002B781C4201D00020F8BD38006978FFF763
:10579000AFF90028F7D02B781C42F4D10023002267
:1057A00038006978FFF7CCF9EEE7C04640FEFFFF0E
:1057B000FF010000F8B50D000835060028000C00B8
:1057C00000F0CEF8002803D0012723781F4201D033
:1057D0000020F8BD30006178FFF78AF90028F7D083
:1057E00028006288616800F03DF9237805001F40B9
:1057F00000280BD0002FEBD10300626830006178E5
:10580000FFF79EF90028E3D02800E2E7002FDFD160
:1058100030006178FFF780F9DAE7C046F8B5CE4688
:10582000474680B58A8906000C000B78002A07D10C
:1058300001251D4240D00020C0BCB946B046F8BD8D
:105840009B0733D42A4B4025994627000837380058
:1058500000F0A4F88542EED80122237890461A423F
:10586000E9D130006178FFF743F90028E3D0380030
:1058700000F094F8424623781A40854231D8002A35
:10588000D9D14A46638802401D1C934200D9151C99
:10589000ADB200226178002D00D062682B0030008C
:1058A000FFF74EF90028C6D02800C5E7FE23802563
:1058B0001B029946AD00C8E74978FFF719F900289F
:1058C000B9D023781D42B6D1638800226178002BBD
:1058D00000D062683000FFF733F90028ABD0608851
:1058E000AAE7002AA7D130006178FFF715F9A2E7EF
:1058F000C0FF0000F0B5C64600B504006846057E4E
:105900008020884617001E000002824226D8E068E8
:10591000002803D00121494201F0A2FA20690028A1
:1059200003D00121494201F09BFA434623607304EE
:105930005B0CED031D430023E0686381A780E580D5
:105940002381002801D001F05BFA2069002801D0F2
:1059500001F056FA012080BCB846F0BD0020FAE7FD
:1059600010B5048941898288A3B288B28C4207D3DA
:105970001B1A9BB2101C9A4200D9181C80B210BD91
:105980005100091A5B189BB2F4E7C04603894089AD
:10599000181A43425841C0B27047C04610B5048936
:1059A00041898288A3B288B28C4207D31B1A9BB26A
:1059B00000209A4201D9D21A90B210BD5100091AA2
:1059C0005B189BB2F4E7C04670B5040000690E0096
:1059D000002803D00121494201F042FA258960895B
:1059E000A288A9B283B2854232D3CD1AADB2002DBE
:1059F00028D0AA4208D291422FD3891A8BB2638150
:105A00009A4203D89B1A9BB29A42FBD9E28821683A
:105A10005204520C53433000C918FDF75DFB6389F3
:105A20000125591C89B2A2888B420DD90021520050
:105A3000891A89B220696181002801D001F0E0F95A
:105A4000280070BD618989B252009142F2DBEFE714
:105A50005500ED1A4D19ADB2C9E789188BB26381B3
:105A6000CEE7C046F0B546464F46D646C0B506001E
:105A7000006989469046002803D00121494201F07F
:105A8000EFF931897289B5888BB294B2914254D3BF
:105A90001F1BBFB2002F4AD0BD4205D2AB4251D22C
:105AA0005B199CB22F0074814346B8453DD89FB224
:105AB000A54203D8641BA4B2A542FBD9F288316881
:105AC0005204520C904662432B1B9BB289184246EB
:105AD0009F4225D953439BB21A0048469A46FDF788
